{
  "_format": "hh-sol-artifact-1",
  "contractName": "KVStore",
  "sourceName": "contracts/KVStore.sol",
  "abi": [
    {
      "inputs": [
        {
          "internalType": "address",
          "name": "_account",
          "type": "address"
        },
        {
          "internalType": "string",
          "name": "_key",
          "type": "string"
        }
      ],
      "name": "get",
      "outputs": [
        {
          "internalType": "string",
          "name": "",
          "type": "string"
        }
      ],
      "stateMutability": "view",
      "type": "function"
    },
    {
      "inputs": [
        {
          "internalType": "string",
          "name": "_key",
          "type": "string"
        },
        {
          "internalType": "string",
          "name": "_value",
          "type": "string"
        }
      ],
      "name": "set",
      "outputs": [],
      "stateMutability": "nonpayable",
      "type": "function"
    }
  ],
  "bytecode": "0x608060405234801561001057600080fd5b5061076b806100206000396000f3fe608060405234801561001057600080fd5b50600436106100365760003560e01c8063e942b5161461003b578063fc2525ab14610057575b600080fd5b61005560048036038101906100509190610439565b610087565b005b610071600480360381019061006c919061050f565b61014f565b60405161007e91906105f3565b60405180910390f35b6103e882511115801561009d57506103e8815111155b6100dc576040517f08c379a00000000000000000000000000000000000000000000000000000000081526004016100d390610661565b60405180910390fd5b806000803373ffffffffffffffffffffffffffffffffffffffff1673ffffffffffffffffffffffffffffffffffffffff1681526020019081526020016000208360405161012991906106bd565b9081526020016040518091039020908051906020019061014a92919061023c565b505050565b60606000808473ffffffffffffffffffffffffffffffffffffffff1673ffffffffffffffffffffffffffffffffffffffff1681526020019081526020016000208260405161019d91906106bd565b908152602001604051809103902080546101b690610703565b80601f01602080910402602001604051908101604052809291908181526020018280546101e290610703565b801561022f5780601f106102045761010080835404028352916020019161022f565b820191906000526020600020905b81548152906001019060200180831161021257829003601f168201915b5050505050905092915050565b82805461024890610703565b90600052602060002090601f01602090048101928261026a57600085556102b1565b82601f1061028357805160ff19168380011785556102b1565b828001600101855582156102b1579182015b828111156102b0578251825591602001919060010190610295565b5b5090506102be91906102c2565b5090565b5b808211156102db5760008160009055506001016102c3565b5090565b6000604051905090565b600080fd5b600080fd5b600080fd5b600080fd5b6000601f19601f8301169050919050565b7f4e487b7100000000000000000000000000000000000000000000000000000000600052604160045260246000fd5b610346826102fd565b810181811067ffffffffffffffff821117156103655761036461030e565b5b80604052505050565b60006103786102df565b9050610384828261033d565b919050565b600067ffffffffffffffff8211156103a4576103a361030e565b5b6103ad826102fd565b9050602081019050919050565b82818337600083830152505050565b60006103dc6103d784610389565b61036e565b9050828152602081018484840111156103f8576103f76102f8565b5b6104038482856103ba565b509392505050565b600082601f8301126104205761041f6102f3565b5b81356104308482602086016103c9565b91505092915050565b600080604083850312156104505761044f6102e9565b5b600083013567ffffffffffffffff81111561046e5761046d6102ee565b5b61047a8582860161040b565b925050602083013567ffffffffffffffff81111561049b5761049a6102ee565b5b6104a78582860161040b565b9150509250929050565b600073ffffffffffffffffffffffffffffffffffffffff82169050919050565b60006104dc826104b1565b9050919050565b6104ec816104d1565b81146104f757600080fd5b50565b600081359050610509816104e3565b92915050565b60008060408385031215610526576105256102e9565b5b6000610534858286016104fa565b925050602083013567ffffffffffffffff811115610555576105546102ee565b5b6105618582860161040b565b9150509250929050565b600081519050919050565b600082825260208201905092915050565b60005b838110156105a557808201518184015260208101905061058a565b838111156105b4576000848401525b50505050565b60006105c58261056b565b6105cf8185610576565b93506105df818560208601610587565b6105e8816102fd565b840191505092915050565b6000602082019050818103600083015261060d81846105ba565b905092915050565b7f4d6178696d756d20737472696e67206c656e6774680000000000000000000000600082015250565b600061064b601583610576565b915061065682610615565b602082019050919050565b6000602082019050818103600083015261067a8161063e565b9050919050565b600081905092915050565b60006106978261056b565b6106a18185610681565b93506106b1818560208601610587565b80840191505092915050565b60006106c9828461068c565b915081905092915050565b7f4e487b7100000000000000000000000000000000000000000000000000000000600052602260045260246000fd5b6000600282049050600182168061071b57607f821691505b6020821081141561072f5761072e6106d4565b5b5091905056fea2646970667358221220665c76e1fc852d1d586769223a3d554d77f59c673736d9d25ad6746bfe35946464736f6c63430008090033",
  "linkReferences": {},
  "deployedLinkReferences": {}
}