{
  "_format": "hh-sol-artifact-1",
  "contractName": "HMToken",
  "sourceName": "contracts/HMToken.sol",
  "abi": [
    {
      "inputs": [
        {
          "internalType": "uint256",
          "name": "_totalSupply",
          "type": "uint256"
        },
        {
          "internalType": "string",
          "name": "_name",
          "type": "string"
        },
        {
          "internalType": "uint8",
          "name": "_decimals",
          "type": "uint8"
        },
        {
          "internalType": "string",
          "name": "_symbol",
          "type": "string"
        }
      ],
      "stateMutability": "nonpayable",
      "type": "constructor"
    },
    {
      "anonymous": false,
      "inputs": [
        {
          "indexed": true,
          "internalType": "address",
          "name": "_owner",
          "type": "address"
        },
        {
          "indexed": true,
          "internalType": "address",
          "name": "_spender",
          "type": "address"
        },
        {
          "indexed": false,
          "internalType": "uint256",
          "name": "_value",
          "type": "uint256"
        }
      ],
      "name": "Approval",
      "type": "event"
    },
    {
      "anonymous": false,
      "inputs": [
        {
          "indexed": true,
          "internalType": "uint256",
          "name": "_txId",
          "type": "uint256"
        },
        {
          "indexed": false,
          "internalType": "uint256",
          "name": "_bulkCount",
          "type": "uint256"
        }
      ],
      "name": "BulkApproval",
      "type": "event"
    },
    {
      "anonymous": false,
      "inputs": [
        {
          "indexed": true,
          "internalType": "uint256",
          "name": "_txId",
          "type": "uint256"
        },
        {
          "indexed": false,
          "internalType": "uint256",
          "name": "_bulkCount",
          "type": "uint256"
        }
      ],
      "name": "BulkTransfer",
      "type": "event"
    },
    {
      "anonymous": false,
      "inputs": [
        {
          "indexed": true,
          "internalType": "address",
          "name": "previousOwner",
          "type": "address"
        },
        {
          "indexed": true,
          "internalType": "address",
          "name": "newOwner",
          "type": "address"
        }
      ],
      "name": "OwnershipTransferred",
      "type": "event"
    },
    {
      "anonymous": false,
      "inputs": [
        {
          "indexed": true,
          "internalType": "address",
          "name": "_from",
          "type": "address"
        },
        {
          "indexed": true,
          "internalType": "address",
          "name": "_to",
          "type": "address"
        },
        {
          "indexed": false,
          "internalType": "uint256",
          "name": "_value",
          "type": "uint256"
        }
      ],
      "name": "Transfer",
      "type": "event"
    },
    {
      "inputs": [
        {
          "internalType": "address",
          "name": "_owner",
          "type": "address"
        },
        {
          "internalType": "address",
          "name": "_spender",
          "type": "address"
        }
      ],
      "name": "allowance",
      "outputs": [
        {
          "internalType": "uint256",
          "name": "remaining",
          "type": "uint256"
        }
      ],
      "stateMutability": "view",
      "type": "function"
    },
    {
      "inputs": [
        {
          "internalType": "address",
          "name": "_spender",
          "type": "address"
        },
        {
          "internalType": "uint256",
          "name": "_value",
          "type": "uint256"
        }
      ],
      "name": "approve",
      "outputs": [
        {
          "internalType": "bool",
          "name": "success",
          "type": "bool"
        }
      ],
      "stateMutability": "nonpayable",
      "type": "function"
    },
    {
      "inputs": [
        {
          "internalType": "address[]",
          "name": "_spenders",
          "type": "address[]"
        },
        {
          "internalType": "uint256[]",
          "name": "_values",
          "type": "uint256[]"
        },
        {
          "internalType": "uint256",
          "name": "_txId",
          "type": "uint256"
        }
      ],
      "name": "approveBulk",
      "outputs": [
        {
          "internalType": "uint256",
          "name": "_bulkCount",
          "type": "uint256"
        }
      ],
      "stateMutability": "nonpayable",
      "type": "function"
    },
    {
      "inputs": [
        {
          "internalType": "address",
          "name": "_owner",
          "type": "address"
        }
      ],
      "name": "balanceOf",
      "outputs": [
        {
          "internalType": "uint256",
          "name": "balance",
          "type": "uint256"
        }
      ],
      "stateMutability": "view",
      "type": "function"
    },
    {
      "inputs": [],
      "name": "decimals",
      "outputs": [
        {
          "internalType": "uint8",
          "name": "",
          "type": "uint8"
        }
      ],
      "stateMutability": "view",
      "type": "function"
    },
    {
      "inputs": [
        {
          "internalType": "address",
          "name": "_spender",
          "type": "address"
        },
        {
          "internalType": "uint256",
          "name": "_delta",
          "type": "uint256"
        }
      ],
      "name": "decreaseApproval",
      "outputs": [
        {
          "internalType": "bool",
          "name": "success",
          "type": "bool"
        }
      ],
      "stateMutability": "nonpayable",
      "type": "function"
    },
    {
      "inputs": [
        {
          "internalType": "address",
          "name": "_spender",
          "type": "address"
        },
        {
          "internalType": "uint256",
          "name": "_delta",
          "type": "uint256"
        }
      ],
      "name": "increaseApproval",
      "outputs": [
        {
          "internalType": "bool",
          "name": "success",
          "type": "bool"
        }
      ],
      "stateMutability": "nonpayable",
      "type": "function"
    },
    {
      "inputs": [],
      "name": "name",
      "outputs": [
        {
          "internalType": "string",
          "name": "",
          "type": "string"
        }
      ],
      "stateMutability": "view",
      "type": "function"
    },
    {
      "inputs": [],
      "name": "owner",
      "outputs": [
        {
          "internalType": "address",
          "name": "",
          "type": "address"
        }
      ],
      "stateMutability": "view",
      "type": "function"
    },
    {
      "inputs": [],
      "name": "renounceOwnership",
      "outputs": [],
      "stateMutability": "nonpayable",
      "type": "function"
    },
    {
      "inputs": [],
      "name": "symbol",
      "outputs": [
        {
          "internalType": "string",
          "name": "",
          "type": "string"
        }
      ],
      "stateMutability": "view",
      "type": "function"
    },
    {
      "inputs": [],
      "name": "totalSupply",
      "outputs": [
        {
          "internalType": "uint256",
          "name": "",
          "type": "uint256"
        }
      ],
      "stateMutability": "view",
      "type": "function"
    },
    {
      "inputs": [
        {
          "internalType": "address",
          "name": "_to",
          "type": "address"
        },
        {
          "internalType": "uint256",
          "name": "_value",
          "type": "uint256"
        }
      ],
      "name": "transfer",
      "outputs": [
        {
          "internalType": "bool",
          "name": "success",
          "type": "bool"
        }
      ],
      "stateMutability": "nonpayable",
      "type": "function"
    },
    {
      "inputs": [
        {
          "internalType": "address[]",
          "name": "_tos",
          "type": "address[]"
        },
        {
          "internalType": "uint256[]",
          "name": "_values",
          "type": "uint256[]"
        },
        {
          "internalType": "uint256",
          "name": "_txId",
          "type": "uint256"
        }
      ],
      "name": "transferBulk",
      "outputs": [
        {
          "internalType": "uint256",
          "name": "_bulkCount",
          "type": "uint256"
        }
      ],
      "stateMutability": "nonpayable",
      "type": "function"
    },
    {
      "inputs": [
        {
          "internalType": "address",
          "name": "_spender",
          "type": "address"
        },
        {
          "internalType": "address",
          "name": "_to",
          "type": "address"
        },
        {
          "internalType": "uint256",
          "name": "_value",
          "type": "uint256"
        }
      ],
      "name": "transferFrom",
      "outputs": [
        {
          "internalType": "bool",
          "name": "success",
          "type": "bool"
        }
      ],
      "stateMutability": "nonpayable",
      "type": "function"
    },
    {
      "inputs": [
        {
          "internalType": "address",
          "name": "newOwner",
          "type": "address"
        }
      ],
      "name": "transferOwnership",
      "outputs": [],
      "stateMutability": "nonpayable",
      "type": "function"
    }
  ],
  "bytecode": "0x60806040523480156200001157600080fd5b506040516200323638038062003236833981810160405281019062000037919062000477565b600062000049620001a960201b60201c565b9050806000806101000a81548173ffffffffffffffffffffffffffffffffffffffff021916908373ffffffffffffffffffffffffffffffffffffffff1602179055508073ffffffffffffffffffffffffffffffffffffffff16600073ffffffffffffffffffffffffffffffffffffffff167f8be0079c531659141344cd1fd0a4f28419497f9722a3daafe3b4186f6b6457e060405160405180910390a3508160ff16600a620000f99190620006aa565b84620001069190620006fb565b600181905550826004908051906020019062000124929190620001b1565b5081600560006101000a81548160ff021916908360ff160217905550806006908051906020019062000158929190620001b1565b50600154600260003373ffffffffffffffffffffffffffffffffffffffff1673ffffffffffffffffffffffffffffffffffffffff1681526020019081526020016000208190555050505050620007c1565b600033905090565b828054620001bf906200078b565b90600052602060002090601f016020900481019282620001e357600085556200022f565b82601f10620001fe57805160ff19168380011785556200022f565b828001600101855582156200022f579182015b828111156200022e57825182559160200191906001019062000211565b5b5090506200023e919062000242565b5090565b5b808211156200025d57600081600090555060010162000243565b5090565b6000604051905090565b600080fd5b600080fd5b6000819050919050565b6200028a8162000275565b81146200029657600080fd5b50565b600081519050620002aa816200027f565b92915050565b600080fd5b600080fd5b6000601f19601f8301169050919050565b7f4e487b7100000000000000000000000000000000000000000000000000000000600052604160045260246000fd5b6200030582620002ba565b810181811067ffffffffffffffff82111715620003275762000326620002cb565b5b80604052505050565b60006200033c62000261565b90506200034a8282620002fa565b919050565b600067ffffffffffffffff8211156200036d576200036c620002cb565b5b6200037882620002ba565b9050602081019050919050565b60005b83811015620003a557808201518184015260208101905062000388565b83811115620003b5576000848401525b50505050565b6000620003d2620003cc846200034f565b62000330565b905082815260208101848484011115620003f157620003f0620002b5565b5b620003fe84828562000385565b509392505050565b600082601f8301126200041e576200041d620002b0565b5b815162000430848260208601620003bb565b91505092915050565b600060ff82169050919050565b620004518162000439565b81146200045d57600080fd5b50565b600081519050620004718162000446565b92915050565b600080600080608085870312156200049457620004936200026b565b5b6000620004a48782880162000299565b945050602085015167ffffffffffffffff811115620004c857620004c762000270565b5b620004d68782880162000406565b9350506040620004e98782880162000460565b925050606085015167ffffffffffffffff8111156200050d576200050c62000270565b5b6200051b8782880162000406565b91505092959194509250565b7f4e487b7100000000000000000000000000000000000000000000000000000000600052601160045260246000fd5b60008160011c9050919050565b6000808291508390505b6001851115620005b5578086048111156200058d576200058c62000527565b5b60018516156200059d5780820291505b8081029050620005ad8562000556565b94506200056d565b94509492505050565b600082620005d05760019050620006a3565b81620005e05760009050620006a3565b8160018114620005f9576002811462000604576200063a565b6001915050620006a3565b60ff84111562000619576200061862000527565b5b8360020a91508482111562000633576200063262000527565b5b50620006a3565b5060208310610133831016604e8410600b8410161715620006745782820a9050838111156200066e576200066d62000527565b5b620006a3565b62000683848484600162000563565b925090508184048111156200069d576200069c62000527565b5b81810290505b9392505050565b6000620006b78262000275565b9150620006c48362000275565b9250620006f37fffffffffffffffffffffffffffffffffffffffffffffffffffffffffffffffff8484620005be565b905092915050565b6000620007088262000275565b9150620007158362000275565b9250817fffffffffffffffffffffffffffffffffffffffffffffffffffffffffffffffff048311821515161562000751576200075062000527565b5b828202905092915050565b7f4e487b7100000000000000000000000000000000000000000000000000000000600052602260045260246000fd5b60006002820490506001821680620007a457607f821691505b60208210811415620007bb57620007ba6200075c565b5b50919050565b612a6580620007d16000396000f3fe608060405234801561001057600080fd5b50600436106101005760003560e01c80638da5cb5b11610097578063dd62ed3e11610066578063dd62ed3e146102c5578063e816d8d8146102f5578063e8f71d1b14610325578063f2fde38b1461035557610100565b80638da5cb5b1461022957806395d89b4114610247578063a9059cbb14610265578063d73dd6231461029557610100565b8063313ce567116100d3578063313ce567146101a157806366188463146101bf57806370a08231146101ef578063715018a61461021f57610100565b806306fdde0314610105578063095ea7b31461012357806318160ddd1461015357806323b872dd14610171575b600080fd5b61010d610371565b60405161011a9190611dae565b60405180910390f35b61013d60048036038101906101389190611e78565b6103ff565b60405161014a9190611ed3565b60405180910390f35b61015b610560565b6040516101689190611efd565b60405180910390f35b61018b60048036038101906101869190611f18565b610566565b6040516101989190611ed3565b60405180910390f35b6101a9610986565b6040516101b69190611f87565b60405180910390f35b6101d960048036038101906101d49190611e78565b610999565b6040516101e69190611ed3565b60405180910390f35b61020960048036038101906102049190611fa2565b610d16565b6040516102169190611efd565b60405180910390f35b610227610d5f565b005b610231610eb2565b60405161023e9190611fde565b60405180910390f35b61024f610edb565b60405161025c9190611dae565b60405180910390f35b61027f600480360381019061027a9190611e78565b610f69565b60405161028c9190611ed3565b60405180910390f35b6102af60048036038101906102aa9190611e78565b610fbd565b6040516102bc9190611ed3565b60405180910390f35b6102df60048036038101906102da9190611ff9565b61137f565b6040516102ec9190611efd565b60405180910390f35b61030f600480360381019061030a9190612244565b611406565b60405161031c9190611efd565b60405180910390f35b61033f600480360381019061033a9190612244565b6115f3565b60405161034c9190611efd565b60405180910390f35b61036f600480360381019061036a9190611fa2565b6117e0565b005b6004805461037e906122fe565b80601f01602080910402602001604051908101604052809291908181526020018280546103aa906122fe565b80156103f75780601f106103cc576101008083540402835291602001916103f7565b820191906000526020600020905b8154815290600101906020018083116103da57829003601f168201915b505050505081565b60008073ffffffffffffffffffffffffffffffffffffffff168373ffffffffffffffffffffffffffffffffffffffff161415610470576040517f08c379a0000000000000000000000000000000000000000000000000000000008152600401610467906123a2565b60405180910390fd5b81600360003373ffffffffffffffffffffffffffffffffffffffff1673ffffffffffffffffffffffffffffffffffffffff16815260200190815260200160002060008573ffffffffffffffffffffffffffffffffffffffff1673ffffffffffffffffffffffffffffffffffffffff168152602001908152602001600020819055508273ffffffffffffffffffffffffffffffffffffffff163373ffffffffffffffffffffffffffffffffffffffff167f8c5be1e5ebec7d5bd14f71427d1e84f3dd0314c0f7b2291e5b200ac8c7c3b9258460405161054e9190611efd565b60405180910390a36001905092915050565b60015481565b600080600360008673ffffffffffffffffffffffffffffffffffffffff1673ffffffffffffffffffffffffffffffffffffffff16815260200190815260200160002060003373ffffffffffffffffffffffffffffffffffffffff1673ffffffffffffffffffffffffffffffffffffffff1681526020019081526020016000205490508281101561062b576040517f08c379a00000000000000000000000000000000000000000000000000000000081526004016106229061240e565b60405180910390fd5b600073ffffffffffffffffffffffffffffffffffffffff168473ffffffffffffffffffffffffffffffffffffffff16141561069b576040517f08c379a0000000000000000000000000000000000000000000000000000000008152600401610692906124a0565b60405180910390fd5b610724836040518060400160405280601781526020017f5370656e6465722062616c616e636520746f6f206c6f77000000000000000000815250600260008973ffffffffffffffffffffffffffffffffffffffff1673ffffffffffffffffffffffffffffffffffffffff168152602001908152602001600020546119a29092919063ffffffff16565b600260008773ffffffffffffffffffffffffffffffffffffffff1673ffffffffffffffffffffffffffffffffffffffff168152602001908152602001600020819055506107b983600260008773ffffffffffffffffffffffffffffffffffffffff1673ffffffffffffffffffffffffffffffffffffffff16815260200190815260200160002054611a0690919063ffffffff16565b600260008673ffffffffffffffffffffffffffffffffffffffff1673ffffffffffffffffffffffffffffffffffffffff1681526020019081526020016000208190555060001981146109155761089483600360008873ffffffffffffffffffffffffffffffffffffffff1673ffffffffffffffffffffffffffffffffffffffff16815260200190815260200160002060003373ffffffffffffffffffffffffffffffffffffffff1673ffffffffffffffffffffffffffffffffffffffff16815260200190815260200160002054611a6490919063ffffffff16565b600360008773ffffffffffffffffffffffffffffffffffffffff1673ffffffffffffffffffffffffffffffffffffffff16815260200190815260200160002060003373ffffffffffffffffffffffffffffffffffffffff1673ffffffffffffffffffffffffffffffffffffffff168152602001908152602001600020819055505b8373ffffffffffffffffffffffffffffffffffffffff168573ffffffffffffffffffffffffffffffffffffffff167fddf252ad1be2c89b69c2b068fc378daa952ba7f163c4a11628f55a4df523b3ef856040516109729190611efd565b60405180910390a360019150509392505050565b600560009054906101000a900460ff1681565b60008073ffffffffffffffffffffffffffffffffffffffff168373ffffffffffffffffffffffffffffffffffffffff161415610a0a576040517f08c379a0000000000000000000000000000000000000000000000000000000008152600401610a01906123a2565b60405180910390fd5b6000600360003373ffffffffffffffffffffffffffffffffffffffff1673ffffffffffffffffffffffffffffffffffffffff16815260200190815260200160002060008573ffffffffffffffffffffffffffffffffffffffff1673ffffffffffffffffffffffffffffffffffffffff16815260200190815260200160002054905080831115610b1a576000600360003373ffffffffffffffffffffffffffffffffffffffff1673ffffffffffffffffffffffffffffffffffffffff16815260200190815260200160002060008673ffffffffffffffffffffffffffffffffffffffff1673ffffffffffffffffffffffffffffffffffffffff16815260200190815260200160002081905550610c2a565b610ba983600360003373ffffffffffffffffffffffffffffffffffffffff1673ffffffffffffffffffffffffffffffffffffffff16815260200190815260200160002060008773ffffffffffffffffffffffffffffffffffffffff1673ffffffffffffffffffffffffffffffffffffffff16815260200190815260200160002054611a6490919063ffffffff16565b600360003373ffffffffffffffffffffffffffffffffffffffff1673ffffffffffffffffffffffffffffffffffffffff16815260200190815260200160002060008673ffffffffffffffffffffffffffffffffffffffff1673ffffffffffffffffffffffffffffffffffffffff168152602001908152602001600020819055505b8373ffffffffffffffffffffffffffffffffffffffff163373ffffffffffffffffffffffffffffffffffffffff167f8c5be1e5ebec7d5bd14f71427d1e84f3dd0314c0f7b2291e5b200ac8c7c3b925600360003373ffffffffffffffffffffffffffffffffffffffff1673ffffffffffffffffffffffffffffffffffffffff16815260200190815260200160002060008873ffffffffffffffffffffffffffffffffffffffff1673ffffffffffffffffffffffffffffffffffffffff16815260200190815260200160002054604051610d039190611efd565b60405180910390a3600191505092915050565b6000600260008373ffffffffffffffffffffffffffffffffffffffff1673ffffffffffffffffffffffffffffffffffffffff168152602001908152602001600020549050919050565b610d67611aae565b73ffffffffffffffffffffffffffffffffffffffff1660008054906101000a900473ffffffffffffffffffffffffffffffffffffffff1673ffffffffffffffffffffffffffffffffffffffff1614610df4576040517f08c379a0000000000000000000000000000000000000000000000000000000008152600401610deb9061250c565b60405180910390fd5b600073ffffffffffffffffffffffffffffffffffffffff1660008054906101000a900473ffffffffffffffffffffffffffffffffffffffff1673ffffffffffffffffffffffffffffffffffffffff167f8be0079c531659141344cd1fd0a4f28419497f9722a3daafe3b4186f6b6457e060405160405180910390a360008060006101000a81548173ffffffffffffffffffffffffffffffffffffffff021916908373ffffffffffffffffffffffffffffffffffffffff160217905550565b60008060009054906101000a900473ffffffffffffffffffffffffffffffffffffffff16905090565b60068054610ee8906122fe565b80601f0160208091040260200160405190810160405280929190818152602001828054610f14906122fe565b8015610f615780601f10610f3657610100808354040283529160200191610f61565b820191906000526020600020905b815481529060010190602001808311610f4457829003601f168201915b505050505081565b6000610f758383611ab6565b905080610fb7576040517f08c379a0000000000000000000000000000000000000000000000000000000008152600401610fae90612578565b60405180910390fd5b92915050565b60008073ffffffffffffffffffffffffffffffffffffffff168373ffffffffffffffffffffffffffffffffffffffff16141561102e576040517f08c379a0000000000000000000000000000000000000000000000000000000008152600401611025906123a2565b60405180910390fd5b6000600360003373ffffffffffffffffffffffffffffffffffffffff1673ffffffffffffffffffffffffffffffffffffffff16815260200190815260200160002060008573ffffffffffffffffffffffffffffffffffffffff1673ffffffffffffffffffffffffffffffffffffffff168152602001908152602001600020549050806110c38483611a0690919063ffffffff16565b10806110e357506000196110e08483611a0690919063ffffffff16565b10155b15611183576110fe6001600019611a6490919063ffffffff16565b600360003373ffffffffffffffffffffffffffffffffffffffff1673ffffffffffffffffffffffffffffffffffffffff16815260200190815260200160002060008673ffffffffffffffffffffffffffffffffffffffff1673ffffffffffffffffffffffffffffffffffffffff16815260200190815260200160002081905550611293565b61121283600360003373ffffffffffffffffffffffffffffffffffffffff1673ffffffffffffffffffffffffffffffffffffffff16815260200190815260200160002060008773ffffffffffffffffffffffffffffffffffffffff1673ffffffffffffffffffffffffffffffffffffffff16815260200190815260200160002054611a0690919063ffffffff16565b600360003373ffffffffffffffffffffffffffffffffffffffff1673ffffffffffffffffffffffffffffffffffffffff16815260200190815260200160002060008673ffffffffffffffffffffffffffffffffffffffff1673ffffffffffffffffffffffffffffffffffffffff168152602001908152602001600020819055505b8373ffffffffffffffffffffffffffffffffffffffff163373ffffffffffffffffffffffffffffffffffffffff167f8c5be1e5ebec7d5bd14f71427d1e84f3dd0314c0f7b2291e5b200ac8c7c3b925600360003373ffffffffffffffffffffffffffffffffffffffff1673ffffffffffffffffffffffffffffffffffffffff16815260200190815260200160002060008873ffffffffffffffffffffffffffffffffffffffff1673ffffffffffffffffffffffffffffffffffffffff1681526020019081526020016000205460405161136c9190611efd565b60405180910390a3600191505092915050565b6000600360008473ffffffffffffffffffffffffffffffffffffffff1673ffffffffffffffffffffffffffffffffffffffff16815260200190815260200160002060008373ffffffffffffffffffffffffffffffffffffffff1673ffffffffffffffffffffffffffffffffffffffff16815260200190815260200160002054905092915050565b6000825184511461144c576040517f08c379a00000000000000000000000000000000000000000000000000000000081526004016114439061260a565b60405180910390fd5b606463ffffffff16845110611496576040517f08c379a000000000000000000000000000000000000000000000000000000000815260040161148d90612676565b60405180910390fd5b6000805b85518110156114e3576114d08582815181106114b9576114b8612696565b5b602002602001015183611a0690919063ffffffff16565b9150806114dc906126f4565b905061149a565b506b033b2e3c9fd0803ce80000008110611532576040517f08c379a000000000000000000000000000000000000000000000000000000000815260040161152990612789565b60405180910390fd5b600080600090505b86518110156115b15761158187828151811061155957611558612696565b5b602002602001015187838151811061157457611573612696565b5b6020026020010151611ab6565b915081156115a05761159d600185611a0690919063ffffffff16565b93505b806115aa906126f4565b905061153a565b50837f8ed71c3a6fb899bfe96968ade5a4119b380c0d642a775106eb80aa795450777e846040516115e29190611efd565b60405180910390a250509392505050565b60008251845114611639576040517f08c379a00000000000000000000000000000000000000000000000000000000081526004016116309061281b565b60405180910390fd5b606463ffffffff16845110611683576040517f08c379a000000000000000000000000000000000000000000000000000000000815260040161167a90612887565b60405180910390fd5b6000805b85518110156116d0576116bd8582815181106116a6576116a5612696565b5b602002602001015183611a0690919063ffffffff16565b9150806116c9906126f4565b9050611687565b506b033b2e3c9fd0803ce8000000811061171f576040517f08c379a000000000000000000000000000000000000000000000000000000000815260040161171690612789565b60405180910390fd5b600080600090505b865181101561179e5761176e87828151811061174657611745612696565b5b602002602001015187838151811061176157611760612696565b5b6020026020010151610fbd565b9150811561178d5761178a600185611a0690919063ffffffff16565b93505b80611797906126f4565b9050611727565b50837fca78741c6b48402cfa7be577db6559c46abb0f8ba9ce1468cf71297349370d9c846040516117cf9190611efd565b60405180910390a250509392505050565b6117e8611aae565b73ffffffffffffffffffffffffffffffffffffffff1660008054906101000a900473ffffffffffffffffffffffffffffffffffffffff1673ffffffffffffffffffffffffffffffffffffffff1614611875576040517f08c379a000000000000000000000000000000000000000000000000000000000815260040161186c9061250c565b60405180910390fd5b600073ffffffffffffffffffffffffffffffffffffffff168173ffffffffffffffffffffffffffffffffffffffff1614156118e5576040517f08c379a00000000000000000000000000000000000000000000000000000000081526004016118dc90612919565b60405180910390fd5b8073ffffffffffffffffffffffffffffffffffffffff1660008054906101000a900473ffffffffffffffffffffffffffffffffffffffff1673ffffffffffffffffffffffffffffffffffffffff167f8be0079c531659141344cd1fd0a4f28419497f9722a3daafe3b4186f6b6457e060405160405180910390a3806000806101000a81548173ffffffffffffffffffffffffffffffffffffffff021916908373ffffffffffffffffffffffffffffffffffffffff16021790555050565b60008383111582906119ea576040517f08c379a00000000000000000000000000000000000000000000000000000000081526004016119e19190611dae565b60405180910390fd5b50600083856119f99190612939565b9050809150509392505050565b6000808284611a15919061296d565b905083811015611a5a576040517f08c379a0000000000000000000000000000000000000000000000000000000008152600401611a5190612a0f565b60405180910390fd5b8091505092915050565b6000611aa683836040518060400160405280601e81526020017f536166654d6174683a207375627472616374696f6e206f766572666c6f7700008152506119a2565b905092915050565b600033905090565b60008073ffffffffffffffffffffffffffffffffffffffff168373ffffffffffffffffffffffffffffffffffffffff161415611af55760009050611d0f565b3073ffffffffffffffffffffffffffffffffffffffff168373ffffffffffffffffffffffffffffffffffffffff161415611b325760009050611d0f565b81600260003373ffffffffffffffffffffffffffffffffffffffff1673ffffffffffffffffffffffffffffffffffffffff168152602001908152602001600020541015611b825760009050611d0f565b81600260003373ffffffffffffffffffffffffffffffffffffffff1673ffffffffffffffffffffffffffffffffffffffff16815260200190815260200160002054611bcd9190612939565b600260003373ffffffffffffffffffffffffffffffffffffffff1673ffffffffffffffffffffffffffffffffffffffff16815260200190815260200160002081905550611c6282600260008673ffffffffffffffffffffffffffffffffffffffff1673ffffffffffffffffffffffffffffffffffffffff16815260200190815260200160002054611a0690919063ffffffff16565b600260008573ffffffffffffffffffffffffffffffffffffffff1673ffffffffffffffffffffffffffffffffffffffff168152602001908152602001600020819055508273ffffffffffffffffffffffffffffffffffffffff163373ffffffffffffffffffffffffffffffffffffffff167fddf252ad1be2c89b69c2b068fc378daa952ba7f163c4a11628f55a4df523b3ef84604051611d029190611efd565b60405180910390a3600190505b92915050565b600081519050919050565b600082825260208201905092915050565b60005b83811015611d4f578082015181840152602081019050611d34565b83811115611d5e576000848401525b50505050565b6000601f19601f8301169050919050565b6000611d8082611d15565b611d8a8185611d20565b9350611d9a818560208601611d31565b611da381611d64565b840191505092915050565b60006020820190508181036000830152611dc88184611d75565b905092915050565b6000604051905090565b600080fd5b600080fd5b600073ffffffffffffffffffffffffffffffffffffffff82169050919050565b6000611e0f82611de4565b9050919050565b611e1f81611e04565b8114611e2a57600080fd5b50565b600081359050611e3c81611e16565b92915050565b6000819050919050565b611e5581611e42565b8114611e6057600080fd5b50565b600081359050611e7281611e4c565b92915050565b60008060408385031215611e8f57611e8e611dda565b5b6000611e9d85828601611e2d565b9250506020611eae85828601611e63565b9150509250929050565b60008115159050919050565b611ecd81611eb8565b82525050565b6000602082019050611ee86000830184611ec4565b92915050565b611ef781611e42565b82525050565b6000602082019050611f126000830184611eee565b92915050565b600080600060608486031215611f3157611f30611dda565b5b6000611f3f86828701611e2d565b9350506020611f5086828701611e2d565b9250506040611f6186828701611e63565b9150509250925092565b600060ff82169050919050565b611f8181611f6b565b82525050565b6000602082019050611f9c6000830184611f78565b92915050565b600060208284031215611fb857611fb7611dda565b5b6000611fc684828501611e2d565b91505092915050565b611fd881611e04565b82525050565b6000602082019050611ff36000830184611fcf565b92915050565b600080604083850312156120105761200f611dda565b5b600061201e85828601611e2d565b925050602061202f85828601611e2d565b9150509250929050565b600080fd5b7f4e487b7100000000000000000000000000000000000000000000000000000000600052604160045260246000fd5b61207682611d64565b810181811067ffffffffffffffff821117156120955761209461203e565b5b80604052505050565b60006120a8611dd0565b90506120b4828261206d565b919050565b600067ffffffffffffffff8211156120d4576120d361203e565b5b602082029050602081019050919050565b600080fd5b60006120fd6120f8846120b9565b61209e565b905080838252602082019050602084028301858111156121205761211f6120e5565b5b835b8181101561214957806121358882611e2d565b845260208401935050602081019050612122565b5050509392505050565b600082601f83011261216857612167612039565b5b81356121788482602086016120ea565b91505092915050565b600067ffffffffffffffff82111561219c5761219b61203e565b5b602082029050602081019050919050565b60006121c06121bb84612181565b61209e565b905080838252602082019050602084028301858111156121e3576121e26120e5565b5b835b8181101561220c57806121f88882611e63565b8452602084019350506020810190506121e5565b5050509392505050565b600082601f83011261222b5761222a612039565b5b813561223b8482602086016121ad565b91505092915050565b60008060006060848603121561225d5761225c611dda565b5b600084013567ffffffffffffffff81111561227b5761227a611ddf565b5b61228786828701612153565b935050602084013567ffffffffffffffff8111156122a8576122a7611ddf565b5b6122b486828701612216565b92505060406122c586828701611e63565b9150509250925092565b7f4e487b7100000000000000000000000000000000000000000000000000000000600052602260045260246000fd5b6000600282049050600182168061231657607f821691505b6020821081141561232a576123296122cf565b5b50919050565b7f546f6b656e207370656e64657220697320616e20756e696e697469616c697a6560008201527f6420616464726573730000000000000000000000000000000000000000000000602082015250565b600061238c602983611d20565b915061239782612330565b604082019050919050565b600060208201905081810360008301526123bb8161237f565b9050919050565b7f5370656e64657220616c6c6f77616e636520746f6f206c6f7700000000000000600082015250565b60006123f8601983611d20565b9150612403826123c2565b602082019050919050565b60006020820190508181036000830152612427816123eb565b9050919050565b7f43616e27742073656e6420746f6b656e7320746f20756e696e697469616c697a60008201527f6564206164647265737300000000000000000000000000000000000000000000602082015250565b600061248a602a83611d20565b91506124958261242e565b604082019050919050565b600060208201905081810360008301526124b98161247d565b9050919050565b7f4f776e61626c653a2063616c6c6572206973206e6f7420746865206f776e6572600082015250565b60006124f6602083611d20565b9150612501826124c0565b602082019050919050565b60006020820190508181036000830152612525816124e9565b9050919050565b7f5472616e73666572206469646e27742073756363656564000000000000000000600082015250565b6000612562601783611d20565b915061256d8261252c565b602082019050919050565b6000602082019050818103600083015261259181612555565b9050919050565b7f416d6f756e74206f6620726563697069656e747320616e642076616c7565732060008201527f646f6e2774206d61746368000000000000000000000000000000000000000000602082015250565b60006125f4602b83611d20565b91506125ff82612598565b604082019050919050565b60006020820190508181036000830152612623816125e7565b9050919050565b7f546f6f206d616e7920726563697069656e747300000000000000000000000000600082015250565b6000612660601383611d20565b915061266b8261262a565b602082019050919050565b6000602082019050818103600083015261268f81612653565b9050919050565b7f4e487b7100000000000000000000000000000000000000000000000000000000600052603260045260246000fd5b7f4e487b7100000000000000000000000000000000000000000000000000000000600052601160045260246000fd5b60006126ff82611e42565b91507fffffffffffffffffffffffffffffffffffffffffffffffffffffffffffffffff821415612732576127316126c5565b5b600182019050919050565b7f42756c6b2076616c756520746f6f206869676800000000000000000000000000600082015250565b6000612773601383611d20565b915061277e8261273d565b602082019050919050565b600060208201905081810360008301526127a281612766565b9050919050565b7f416d6f756e74206f66207370656e6465727320616e642076616c75657320646f60008201527f6e2774206d617463680000000000000000000000000000000000000000000000602082015250565b6000612805602983611d20565b9150612810826127a9565b604082019050919050565b60006020820190508181036000830152612834816127f8565b9050919050565b7f546f6f206d616e79207370656e64657273000000000000000000000000000000600082015250565b6000612871601183611d20565b915061287c8261283b565b602082019050919050565b600060208201905081810360008301526128a081612864565b9050919050565b7f4f776e61626c653a206e6577206f776e657220697320746865207a65726f206160008201527f6464726573730000000000000000000000000000000000000000000000000000602082015250565b6000612903602683611d20565b915061290e826128a7565b604082019050919050565b60006020820190508181036000830152612932816128f6565b9050919050565b600061294482611e42565b915061294f83611e42565b925082821015612962576129616126c5565b5b828203905092915050565b600061297882611e42565b915061298383611e42565b9250827fffffffffffffffffffffffffffffffffffffffffffffffffffffffffffffffff038211156129b8576129b76126c5565b5b828201905092915050565b7f536166654d6174683a206164646974696f6e206f766572666c6f770000000000600082015250565b60006129f9601b83611d20565b9150612a04826129c3565b602082019050919050565b60006020820190508181036000830152612a28816129ec565b905091905056fea26469706673582212204179fd833f6a2d07709ca5ba615ea659e19d98302801a91a9f0a46fffade001064736f6c63430008090033",
  "linkReferences": {},
  "deployedLinkReferences": {}
}