{
  "_format": "hh-sol-artifact-1",
  "contractName": "Etherbase",
  "sourceName": "contracts/Etherbase.sol",
  "abi": [
    {
      "inputs": [
        {
          "internalType": "address",
          "name": "schainOwner",
          "type": "address"
        }
      ],
      "stateMutability": "nonpayable",
      "type": "constructor"
    },
    {
      "anonymous": false,
      "inputs": [
        {
          "indexed": false,
          "internalType": "address",
          "name": "sender",
          "type": "address"
        },
        {
          "indexed": false,
          "internalType": "uint256",
          "name": "amount",
          "type": "uint256"
        }
      ],
      "name": "EtherReceived",
      "type": "event"
    },
    {
      "anonymous": false,
      "inputs": [
        {
          "indexed": false,
          "internalType": "address",
          "name": "receiver",
          "type": "address"
        },
        {
          "indexed": false,
          "internalType": "uint256",
          "name": "amount",
          "type": "uint256"
        }
      ],
      "name": "EtherSent",
      "type": "event"
    },
    {
      "anonymous": false,
      "inputs": [
        {
          "indexed": true,
          "internalType": "bytes32",
          "name": "role",
          "type": "bytes32"
        },
        {
          "indexed": true,
          "internalType": "bytes32",
          "name": "previousAdminRole",
          "type": "bytes32"
        },
        {
          "indexed": true,
          "internalType": "bytes32",
          "name": "newAdminRole",
          "type": "bytes32"
        }
      ],
      "name": "RoleAdminChanged",
      "type": "event"
    },
    {
      "anonymous": false,
      "inputs": [
        {
          "indexed": true,
          "internalType": "bytes32",
          "name": "role",
          "type": "bytes32"
        },
        {
          "indexed": true,
          "internalType": "address",
          "name": "account",
          "type": "address"
        },
        {
          "indexed": true,
          "internalType": "address",
          "name": "sender",
          "type": "address"
        }
      ],
      "name": "RoleGranted",
      "type": "event"
    },
    {
      "anonymous": false,
      "inputs": [
        {
          "indexed": true,
          "internalType": "bytes32",
          "name": "role",
          "type": "bytes32"
        },
        {
          "indexed": true,
          "internalType": "address",
          "name": "account",
          "type": "address"
        },
        {
          "indexed": true,
          "internalType": "address",
          "name": "sender",
          "type": "address"
        }
      ],
      "name": "RoleRevoked",
      "type": "event"
    },
    {
      "inputs": [],
      "name": "DEFAULT_ADMIN_ROLE",
      "outputs": [
        {
          "internalType": "bytes32",
          "name": "",
          "type": "bytes32"
        }
      ],
      "stateMutability": "view",
      "type": "function"
    },
    {
      "inputs": [],
      "name": "ETHER_MANAGER_ROLE",
      "outputs": [
        {
          "internalType": "bytes32",
          "name": "",
          "type": "bytes32"
        }
      ],
      "stateMutability": "view",
      "type": "function"
    },
    {
      "inputs": [
        {
          "internalType": "bytes32",
          "name": "role",
          "type": "bytes32"
        }
      ],
      "name": "getRoleAdmin",
      "outputs": [
        {
          "internalType": "bytes32",
          "name": "",
          "type": "bytes32"
        }
      ],
      "stateMutability": "view",
      "type": "function"
    },
    {
      "inputs": [
        {
          "internalType": "bytes32",
          "name": "role",
          "type": "bytes32"
        },
        {
          "internalType": "uint256",
          "name": "index",
          "type": "uint256"
        }
      ],
      "name": "getRoleMember",
      "outputs": [
        {
          "internalType": "address",
          "name": "",
          "type": "address"
        }
      ],
      "stateMutability": "view",
      "type": "function"
    },
    {
      "inputs": [
        {
          "internalType": "bytes32",
          "name": "role",
          "type": "bytes32"
        }
      ],
      "name": "getRoleMemberCount",
      "outputs": [
        {
          "internalType": "uint256",
          "name": "",
          "type": "uint256"
        }
      ],
      "stateMutability": "view",
      "type": "function"
    },
    {
      "inputs": [
        {
          "internalType": "bytes32",
          "name": "role",
          "type": "bytes32"
        },
        {
          "internalType": "address",
          "name": "account",
          "type": "address"
        }
      ],
      "name": "grantRole",
      "outputs": [],
      "stateMutability": "nonpayable",
      "type": "function"
    },
    {
      "inputs": [
        {
          "internalType": "bytes32",
          "name": "role",
          "type": "bytes32"
        },
        {
          "internalType": "address",
          "name": "account",
          "type": "address"
        }
      ],
      "name": "hasRole",
      "outputs": [
        {
          "internalType": "bool",
          "name": "",
          "type": "bool"
        }
      ],
      "stateMutability": "view",
      "type": "function"
    },
    {
      "inputs": [
        {
          "internalType": "address payable",
          "name": "receiver",
          "type": "address"
        },
        {
          "internalType": "uint256",
          "name": "amount",
          "type": "uint256"
        }
      ],
      "name": "partiallyRetrieve",
      "outputs": [],
      "stateMutability": "nonpayable",
      "type": "function"
    },
    {
      "inputs": [
        {
          "internalType": "bytes32",
          "name": "role",
          "type": "bytes32"
        },
        {
          "internalType": "address",
          "name": "account",
          "type": "address"
        }
      ],
      "name": "renounceRole",
      "outputs": [],
      "stateMutability": "nonpayable",
      "type": "function"
    },
    {
      "inputs": [
        {
          "internalType": "address payable",
          "name": "receiver",
          "type": "address"
        }
      ],
      "name": "retrieve",
      "outputs": [],
      "stateMutability": "nonpayable",
      "type": "function"
    },
    {
      "inputs": [
        {
          "internalType": "bytes32",
          "name": "role",
          "type": "bytes32"
        },
        {
          "internalType": "address",
          "name": "account",
          "type": "address"
        }
      ],
      "name": "revokeRole",
      "outputs": [],
      "stateMutability": "nonpayable",
      "type": "function"
    },
    {
      "inputs": [
        {
          "internalType": "bytes4",
          "name": "interfaceId",
          "type": "bytes4"
        }
      ],
      "name": "supportsInterface",
      "outputs": [
        {
          "internalType": "bool",
          "name": "",
          "type": "bool"
        }
      ],
      "stateMutability": "view",
      "type": "function"
    },
    {
      "stateMutability": "payable",
      "type": "receive"
    }
  ],
  "bytecode": "0x60806040523480156200001157600080fd5b506040516200101e3803806200101e8339810160408190526200003491620001d9565b6200004160008262000074565b6200006d7fe0ba7b49edc651b7ad93b374c67f1e9a0d37370168bbb86b81c569ebfa15f0468262000074565b506200020b565b62000080828262000084565b5050565b6200009b8282620000c760201b6200062d1760201c565b6000828152600160209081526040909120620000c2918390620006b162000167821b17901c565b505050565b6000828152602081815260408083206001600160a01b038516845290915290205460ff1662000080576000828152602081815260408083206001600160a01b03851684529091529020805460ff19166001179055620001233390565b6001600160a01b0316816001600160a01b0316837f2f8788117e7eff1d82e926ec794901d17c78024a50270940304540a733656f0d60405160405180910390a45050565b60006200017e836001600160a01b03841662000187565b90505b92915050565b6000818152600183016020526040812054620001d05750815460018181018455600084815260208082209093018490558454848252828601909352604090209190915562000181565b50600062000181565b600060208284031215620001ec57600080fd5b81516001600160a01b03811681146200020457600080fd5b9392505050565b610e03806200021b6000396000f3fe6080604052600436106100ab5760003560e01c80639010d07c116100645780639010d07c146101e457806391d148541461021c578063a217fddf1461023c578063bc2a1e8d14610251578063ca15c87314610285578063d547741f146102a557600080fd5b806301ffc9a7146100ef5780630a79309b14610124578063204a3e9314610146578063248a9ca3146101665780632f2ff15d146101a457806336568abe146101c457600080fd5b366100ea57604080513381523460208201527f1e57e3bb474320be3d2c77138f75b7c3941292d647f5f9634e33a8e94e0e069b910160405180910390a1005b600080fd5b3480156100fb57600080fd5b5061010f61010a366004610b45565b6102c5565b60405190151581526020015b60405180910390f35b34801561013057600080fd5b5061014461013f366004610b84565b6102f0565b005b34801561015257600080fd5b50610144610161366004610ba1565b610378565b34801561017257600080fd5b50610196610181366004610bcd565b60009081526020819052604090206001015490565b60405190815260200161011b565b3480156101b057600080fd5b506101446101bf366004610be6565b610506565b3480156101d057600080fd5b506101446101df366004610be6565b61052b565b3480156101f057600080fd5b506102046101ff366004610c16565b6105a9565b6040516001600160a01b03909116815260200161011b565b34801561022857600080fd5b5061010f610237366004610be6565b6105c8565b34801561024857600080fd5b50610196600081565b34801561025d57600080fd5b506101967fe0ba7b49edc651b7ad93b374c67f1e9a0d37370168bbb86b81c569ebfa15f04681565b34801561029157600080fd5b506101966102a0366004610bcd565b6105f1565b3480156102b157600080fd5b506101446102c0366004610be6565b610608565b60006001600160e01b03198216635a05180f60e01b14806102ea57506102ea826106c6565b92915050565b61031a7fe0ba7b49edc651b7ad93b374c67f1e9a0d37370168bbb86b81c569ebfa15f046336105c8565b61036b5760405162461bcd60e51b815260206004820152601e60248201527f45544845525f4d414e414745525f524f4c45206973207265717569726564000060448201526064015b60405180910390fd5b6103758147610378565b50565b6103a27fe0ba7b49edc651b7ad93b374c67f1e9a0d37370168bbb86b81c569ebfa15f046336105c8565b6103ee5760405162461bcd60e51b815260206004820152601e60248201527f45544845525f4d414e414745525f524f4c4520697320726571756972656400006044820152606401610362565b6001600160a01b0382166104445760405162461bcd60e51b815260206004820152601b60248201527f52656365697665722061646472657373206973206e6f742073657400000000006044820152606401610362565b478111156104895760405162461bcd60e51b8152602060048201526012602482015271496e73756666696369656e742066756e647360701b6044820152606401610362565b604080516001600160a01b0384168152602081018390527f6109e2559dfa766aaec7118351d48a523f0a4157f49c8d68749c8ac41318ad12910160405180910390a16040516001600160a01b0383169082156108fc029083906000818181858888f19350505050158015610501573d6000803e3d6000fd5b505050565b600082815260208190526040902060010154610521816106fb565b6105018383610705565b6001600160a01b038116331461059b5760405162461bcd60e51b815260206004820152602f60248201527f416363657373436f6e74726f6c3a2063616e206f6e6c792072656e6f756e636560448201526e103937b632b9903337b91039b2b63360891b6064820152608401610362565b6105a58282610727565b5050565b60008281526001602052604081206105c19083610749565b9392505050565b6000918252602082815260408084206001600160a01b0393909316845291905290205460ff1690565b60008181526001602052604081206102ea90610755565b600082815260208190526040902060010154610623816106fb565b6105018383610727565b61063782826105c8565b6105a5576000828152602081815260408083206001600160a01b03851684529091529020805460ff1916600117905561066d3390565b6001600160a01b0316816001600160a01b0316837f2f8788117e7eff1d82e926ec794901d17c78024a50270940304540a733656f0d60405160405180910390a45050565b60006105c1836001600160a01b03841661075f565b60006001600160e01b03198216637965db0b60e01b14806102ea57506301ffc9a760e01b6001600160e01b03198316146102ea565b61037581336107ae565b61070f828261062d565b600082815260016020526040902061050190826106b1565b6107318282610812565b60008281526001602052604090206105019082610877565b60006105c1838361088c565b60006102ea825490565b60008181526001830160205260408120546107a6575081546001818101845560008481526020808220909301849055845484825282860190935260409020919091556102ea565b5060006102ea565b6107b882826105c8565b6105a5576107d0816001600160a01b031660146108b6565b6107db8360206108b6565b6040516020016107ec929190610c68565b60408051601f198184030181529082905262461bcd60e51b825261036291600401610cdd565b61081c82826105c8565b156105a5576000828152602081815260408083206001600160a01b0385168085529252808320805460ff1916905551339285917ff6391f5c32d9c69d2a47ea670b442974b53935d1edc7fd64eb21e047a839171b9190a45050565b60006105c1836001600160a01b038416610a52565b60008260000182815481106108a3576108a3610d10565b9060005260206000200154905092915050565b606060006108c5836002610d3c565b6108d0906002610d5b565b67ffffffffffffffff8111156108e8576108e8610d73565b6040519080825280601f01601f191660200182016040528015610912576020820181803683370190505b509050600360fc1b8160008151811061092d5761092d610d10565b60200101906001600160f81b031916908160001a905350600f60fb1b8160018151811061095c5761095c610d10565b60200101906001600160f81b031916908160001a9053506000610980846002610d3c565b61098b906001610d5b565b90505b6001811115610a03576f181899199a1a9b1b9c1cb0b131b232b360811b85600f16601081106109bf576109bf610d10565b1a60f81b8282815181106109d5576109d5610d10565b60200101906001600160f81b031916908160001a90535060049490941c936109fc81610d89565b905061098e565b5083156105c15760405162461bcd60e51b815260206004820181905260248201527f537472696e67733a20686578206c656e67746820696e73756666696369656e746044820152606401610362565b60008181526001830160205260408120548015610b3b576000610a76600183610da0565b8554909150600090610a8a90600190610da0565b9050818114610aef576000866000018281548110610aaa57610aaa610d10565b9060005260206000200154905080876000018481548110610acd57610acd610d10565b6000918252602080832090910192909255918252600188019052604090208390555b8554869080610b0057610b00610db7565b6001900381819060005260206000200160009055905585600101600086815260200190815260200160002060009055600193505050506102ea565b60009150506102ea565b600060208284031215610b5757600080fd5b81356001600160e01b0319811681146105c157600080fd5b6001600160a01b038116811461037557600080fd5b600060208284031215610b9657600080fd5b81356105c181610b6f565b60008060408385031215610bb457600080fd5b8235610bbf81610b6f565b946020939093013593505050565b600060208284031215610bdf57600080fd5b5035919050565b60008060408385031215610bf957600080fd5b823591506020830135610c0b81610b6f565b809150509250929050565b60008060408385031215610c2957600080fd5b50508035926020909101359150565b60005b83811015610c53578181015183820152602001610c3b565b83811115610c62576000848401525b50505050565b7f416363657373436f6e74726f6c3a206163636f756e7420000000000000000000815260008351610ca0816017850160208801610c38565b7001034b99036b4b9b9b4b733903937b6329607d1b6017918401918201528351610cd1816028840160208801610c38565b01602801949350505050565b6020815260008251806020840152610cfc816040850160208701610c38565b601f01601f19169190910160400192915050565b634e487b7160e01b600052603260045260246000fd5b634e487b7160e01b600052601160045260246000fd5b6000816000190483118215151615610d5657610d56610d26565b500290565b60008219821115610d6e57610d6e610d26565b500190565b634e487b7160e01b600052604160045260246000fd5b600081610d9857610d98610d26565b506000190190565b600082821015610db257610db2610d26565b500390565b634e487b7160e01b600052603160045260246000fdfea26469706673582212201a5fa4b758c1c4fdfb669724337cec6802cd68cb34575ad48d5fda267e30a68464736f6c634300080b0033",
  "linkReferences": {},
  "deployedLinkReferences": {}
}