{
  "_format": "hh-sol-artifact-1",
  "contractName": "Escrow",
  "sourceName": "contracts/Escrow.sol",
  "abi": [
    {
      "inputs": [
        {
          "internalType": "address",
          "name": "_eip20",
          "type": "address"
        },
        {
          "internalType": "address payable",
          "name": "_canceler",
          "type": "address"
        },
        {
          "internalType": "uint256",
          "name": "_duration",
          "type": "uint256"
        },
        {
          "internalType": "address[]",
          "name": "_handlers",
          "type": "address[]"
        }
      ],
      "stateMutability": "nonpayable",
      "type": "constructor"
    },
    {
      "anonymous": false,
      "inputs": [
        {
          "indexed": true,
          "internalType": "uint256",
          "name": "_txId",
          "type": "uint256"
        },
        {
          "indexed": false,
          "internalType": "uint256",
          "name": "_bulkCount",
          "type": "uint256"
        }
      ],
      "name": "BulkTransfer",
      "type": "event"
    },
    {
      "anonymous": false,
      "inputs": [
        {
          "indexed": false,
          "internalType": "string",
          "name": "_url",
          "type": "string"
        },
        {
          "indexed": false,
          "internalType": "string",
          "name": "_hash",
          "type": "string"
        }
      ],
      "name": "IntermediateStorage",
      "type": "event"
    },
    {
      "anonymous": false,
      "inputs": [
        {
          "indexed": false,
          "internalType": "string",
          "name": "manifest",
          "type": "string"
        },
        {
          "indexed": false,
          "internalType": "string",
          "name": "hash",
          "type": "string"
        }
      ],
      "name": "Pending",
      "type": "event"
    },
    {
      "inputs": [],
      "name": "abort",
      "outputs": [],
      "stateMutability": "nonpayable",
      "type": "function"
    },
    {
      "inputs": [
        {
          "internalType": "address[]",
          "name": "_handlers",
          "type": "address[]"
        }
      ],
      "name": "addTrustedHandlers",
      "outputs": [],
      "stateMutability": "nonpayable",
      "type": "function"
    },
    {
      "inputs": [
        {
          "internalType": "address",
          "name": "",
          "type": "address"
        }
      ],
      "name": "areTrustedHandlers",
      "outputs": [
        {
          "internalType": "bool",
          "name": "",
          "type": "bool"
        }
      ],
      "stateMutability": "view",
      "type": "function"
    },
    {
      "inputs": [],
      "name": "bulkPaid",
      "outputs": [
        {
          "internalType": "bool",
          "name": "",
          "type": "bool"
        }
      ],
      "stateMutability": "view",
      "type": "function"
    },
    {
      "inputs": [
        {
          "internalType": "address[]",
          "name": "_recipients",
          "type": "address[]"
        },
        {
          "internalType": "uint256[]",
          "name": "_amounts",
          "type": "uint256[]"
        },
        {
          "internalType": "string",
          "name": "_url",
          "type": "string"
        },
        {
          "internalType": "string",
          "name": "_hash",
          "type": "string"
        },
        {
          "internalType": "uint256",
          "name": "_txId",
          "type": "uint256"
        }
      ],
      "name": "bulkPayOut",
      "outputs": [
        {
          "internalType": "bool",
          "name": "",
          "type": "bool"
        }
      ],
      "stateMutability": "nonpayable",
      "type": "function"
    },
    {
      "inputs": [],
      "name": "cancel",
      "outputs": [
        {
          "internalType": "bool",
          "name": "",
          "type": "bool"
        }
      ],
      "stateMutability": "nonpayable",
      "type": "function"
    },
    {
      "inputs": [],
      "name": "canceler",
      "outputs": [
        {
          "internalType": "address payable",
          "name": "",
          "type": "address"
        }
      ],
      "stateMutability": "view",
      "type": "function"
    },
    {
      "inputs": [],
      "name": "complete",
      "outputs": [],
      "stateMutability": "nonpayable",
      "type": "function"
    },
    {
      "inputs": [],
      "name": "duration",
      "outputs": [
        {
          "internalType": "uint256",
          "name": "",
          "type": "uint256"
        }
      ],
      "stateMutability": "view",
      "type": "function"
    },
    {
      "inputs": [],
      "name": "eip20",
      "outputs": [
        {
          "internalType": "address",
          "name": "",
          "type": "address"
        }
      ],
      "stateMutability": "view",
      "type": "function"
    },
    {
      "inputs": [
        {
          "internalType": "uint256",
          "name": "",
          "type": "uint256"
        }
      ],
      "name": "finalAmounts",
      "outputs": [
        {
          "internalType": "uint256",
          "name": "",
          "type": "uint256"
        }
      ],
      "stateMutability": "view",
      "type": "function"
    },
    {
      "inputs": [],
      "name": "finalResultsHash",
      "outputs": [
        {
          "internalType": "string",
          "name": "",
          "type": "string"
        }
      ],
      "stateMutability": "view",
      "type": "function"
    },
    {
      "inputs": [],
      "name": "finalResultsUrl",
      "outputs": [
        {
          "internalType": "string",
          "name": "",
          "type": "string"
        }
      ],
      "stateMutability": "view",
      "type": "function"
    },
    {
      "inputs": [],
      "name": "getBalance",
      "outputs": [
        {
          "internalType": "uint256",
          "name": "",
          "type": "uint256"
        }
      ],
      "stateMutability": "view",
      "type": "function"
    },
    {
      "inputs": [],
      "name": "launcher",
      "outputs": [
        {
          "internalType": "address",
          "name": "",
          "type": "address"
        }
      ],
      "stateMutability": "view",
      "type": "function"
    },
    {
      "inputs": [],
      "name": "manifestHash",
      "outputs": [
        {
          "internalType": "string",
          "name": "",
          "type": "string"
        }
      ],
      "stateMutability": "view",
      "type": "function"
    },
    {
      "inputs": [],
      "name": "manifestUrl",
      "outputs": [
        {
          "internalType": "string",
          "name": "",
          "type": "string"
        }
      ],
      "stateMutability": "view",
      "type": "function"
    },
    {
      "inputs": [],
      "name": "recordingOracle",
      "outputs": [
        {
          "internalType": "address",
          "name": "",
          "type": "address"
        }
      ],
      "stateMutability": "view",
      "type": "function"
    },
    {
      "inputs": [],
      "name": "recordingOracleStake",
      "outputs": [
        {
          "internalType": "uint256",
          "name": "",
          "type": "uint256"
        }
      ],
      "stateMutability": "view",
      "type": "function"
    },
    {
      "inputs": [],
      "name": "reputationOracle",
      "outputs": [
        {
          "internalType": "address",
          "name": "",
          "type": "address"
        }
      ],
      "stateMutability": "view",
      "type": "function"
    },
    {
      "inputs": [],
      "name": "reputationOracleStake",
      "outputs": [
        {
          "internalType": "uint256",
          "name": "",
          "type": "uint256"
        }
      ],
      "stateMutability": "view",
      "type": "function"
    },
    {
      "inputs": [
        {
          "internalType": "address",
          "name": "_reputationOracle",
          "type": "address"
        },
        {
          "internalType": "address",
          "name": "_recordingOracle",
          "type": "address"
        },
        {
          "internalType": "uint256",
          "name": "_reputationOracleStake",
          "type": "uint256"
        },
        {
          "internalType": "uint256",
          "name": "_recordingOracleStake",
          "type": "uint256"
        },
        {
          "internalType": "string",
          "name": "_url",
          "type": "string"
        },
        {
          "internalType": "string",
          "name": "_hash",
          "type": "string"
        }
      ],
      "name": "setup",
      "outputs": [],
      "stateMutability": "nonpayable",
      "type": "function"
    },
    {
      "inputs": [],
      "name": "status",
      "outputs": [
        {
          "internalType": "enum Escrow.EscrowStatuses",
          "name": "",
          "type": "uint8"
        }
      ],
      "stateMutability": "view",
      "type": "function"
    },
    {
      "inputs": [
        {
          "internalType": "string",
          "name": "_url",
          "type": "string"
        },
        {
          "internalType": "string",
          "name": "_hash",
          "type": "string"
        }
      ],
      "name": "storeResults",
      "outputs": [],
      "stateMutability": "nonpayable",
      "type": "function"
    }
  ],
  "bytecode": "0x60806040523480156200001157600080fd5b50604051620040b9380380620040b983398181016040528101906200003791906200060e565b83600660006101000a81548173ffffffffffffffffffffffffffffffffffffffff021916908373ffffffffffffffffffffffffffffffffffffffff16021790555060008060006101000a81548160ff02191690836005811115620000a0576200009f6200069f565b5b0217905550620000bf42836200021260201b62001dfa1790919060201c565b600b8190555033600260006101000a81548173ffffffffffffffffffffffffffffffffffffffff021916908373ffffffffffffffffffffffffffffffffffffffff16021790555082600360006101000a81548173ffffffffffffffffffffffffffffffffffffffff021916908373ffffffffffffffffffffffffffffffffffffffff1602179055506001600e60008573ffffffffffffffffffffffffffffffffffffffff1673ffffffffffffffffffffffffffffffffffffffff16815260200190815260200160002060006101000a81548160ff0219169083151502179055506001600e60003373ffffffffffffffffffffffffffffffffffffffff1673ffffffffffffffffffffffffffffffffffffffff16815260200190815260200160002060006101000a81548160ff02191690831515021790555062000208816200027560201b60201c565b50505050620008f2565b6000808284620002239190620006fd565b9050838110156200026b576040517f08c379a00000000000000000000000000000000000000000000000000000000081526004016200026290620007bb565b60405180910390fd5b8091505092915050565b600e60003373ffffffffffffffffffffffffffffffffffffffff1673ffffffffffffffffffffffffffffffffffffffff16815260200190815260200160002060009054906101000a900460ff1662000304576040517f08c379a0000000000000000000000000000000000000000000000000000000008152600401620002fb9062000853565b60405180910390fd5b60005b81518110156200039c576001600e60008484815181106200032d576200032c62000875565b5b602002602001015173ffffffffffffffffffffffffffffffffffffffff1673ffffffffffffffffffffffffffffffffffffffff16815260200190815260200160002060006101000a81548160ff02191690831515021790555080806200039390620008a4565b91505062000307565b5050565b6000604051905090565b600080fd5b600080fd5b600073ffffffffffffffffffffffffffffffffffffffff82169050919050565b6000620003e182620003b4565b9050919050565b620003f381620003d4565b8114620003ff57600080fd5b50565b6000815190506200041381620003e8565b92915050565b60006200042682620003b4565b9050919050565b620004388162000419565b81146200044457600080fd5b50565b60008151905062000458816200042d565b92915050565b6000819050919050565b62000473816200045e565b81146200047f57600080fd5b50565b600081519050620004938162000468565b92915050565b600080fd5b6000601f19601f8301169050919050565b7f4e487b7100000000000000000000000000000000000000000000000000000000600052604160045260246000fd5b620004e9826200049e565b810181811067ffffffffffffffff821117156200050b576200050a620004af565b5b80604052505050565b600062000520620003a0565b90506200052e8282620004de565b919050565b600067ffffffffffffffff821115620005515762000550620004af565b5b602082029050602081019050919050565b600080fd5b60006200057e620005788462000533565b62000514565b90508083825260208201905060208402830185811115620005a457620005a362000562565b5b835b81811015620005d15780620005bc888262000402565b845260208401935050602081019050620005a6565b5050509392505050565b600082601f830112620005f357620005f262000499565b5b81516200060584826020860162000567565b91505092915050565b600080600080608085870312156200062b576200062a620003aa565b5b60006200063b8782880162000402565b94505060206200064e8782880162000447565b9350506040620006618782880162000482565b925050606085015167ffffffffffffffff811115620006855762000684620003af565b5b6200069387828801620005db565b91505092959194509250565b7f4e487b7100000000000000000000000000000000000000000000000000000000600052602160045260246000fd5b7f4e487b7100000000000000000000000000000000000000000000000000000000600052601160045260246000fd5b60006200070a826200045e565b915062000717836200045e565b9250827fffffffffffffffffffffffffffffffffffffffffffffffffffffffffffffffff038211156200074f576200074e620006ce565b5b828201905092915050565b600082825260208201905092915050565b7f536166654d6174683a206164646974696f6e206f766572666c6f770000000000600082015250565b6000620007a3601b836200075a565b9150620007b0826200076b565b602082019050919050565b60006020820190508181036000830152620007d68162000794565b9050919050565b7f416464726573732063616c6c696e672063616e6e6f742061646420747275737460008201527f65642068616e646c657273000000000000000000000000000000000000000000602082015250565b60006200083b602b836200075a565b91506200084882620007dd565b604082019050919050565b600060208201905081810360008301526200086e816200082c565b9050919050565b7f4e487b7100000000000000000000000000000000000000000000000000000000600052603260045260246000fd5b6000620008b1826200045e565b91507fffffffffffffffffffffffffffffffffffffffffffffffffffffffffffffffff821415620008e757620008e6620006ce565b5b600182019050919050565b6137b780620009026000396000f3fe608060405234801561001057600080fd5b50600436106101585760003560e01c80639753e432116100c3578063cc06cfa91161007c578063cc06cfa91461035f578063d65281f01461037d578063ea8a1af0146103ad578063f17171e9146103cb578063f926657e146103fb578063fad844c11461041757610158565b80639753e4321461029b578063992d454d146102b95780639c48b102146102d75780639eb262f3146102f5578063b63d1a0014610311578063bb19d62f1461034157610158565b8063200d2ed211610115578063200d2ed214610211578063337f3f321461022f57806335a063b41461024d57806343aba9c214610257578063522e117714610275578063697e4b871461027f57610158565b80630529198f1461015d5780630f46c9aa1461017b5780630fb5a6b41461019957806312065fe0146101b757806316eebd1e146101d5578063196214d3146101f3575b600080fd5b610165610435565b6040516101729190612263565b60405180910390f35b61018361043b565b6040516101909190612317565b60405180910390f35b6101a16104c9565b6040516101ae9190612263565b60405180910390f35b6101bf6104cf565b6040516101cc9190612263565b60405180910390f35b6101dd610581565b6040516101ea919061237a565b60405180910390f35b6101fb6105a7565b604051610208919061237a565b60405180910390f35b6102196105cd565b604051610226919061240c565b60405180910390f35b6102376105de565b6040516102449190612317565b60405180910390f35b61025561066c565b005b61025f610836565b60405161026c9190612317565b60405180910390f35b61027d6108c4565b005b61029960048036038101906102949190612570565b610a8c565b005b6102a3610c49565b6040516102b0919061237a565b60405180910390f35b6102c1610c6f565b6040516102ce9190612609565b60405180910390f35b6102df610c95565b6040516102ec9190612317565b60405180910390f35b61030f600480360381019061030a9190612718565b610d23565b005b61032b60048036038101906103269190612850565b610e44565b6040516103389190612956565b60405180910390f35b6103496115fc565b6040516103569190612263565b60405180910390f35b610367611602565b6040516103749190612956565b60405180910390f35b61039760048036038101906103929190612971565b611615565b6040516103a49190612263565b60405180910390f35b6103b5611639565b6040516103c29190612956565b60405180910390f35b6103e560048036038101906103e0919061299e565b611909565b6040516103f29190612956565b60405180910390f35b610415600480360381019061041091906129cb565b611929565b005b61041f611dd4565b60405161042c919061237a565b60405180910390f35b60055481565b600a805461044890612abf565b80601f016020809104026020016040519081016040528092919081815260200182805461047490612abf565b80156104c15780601f10610496576101008083540402835291602001916104c1565b820191906000526020600020905b8154815290600101906020018083116104a457829003601f168201915b505050505081565b600b5481565b6000600660009054906101000a900473ffffffffffffffffffffffffffffffffffffffff1673ffffffffffffffffffffffffffffffffffffffff166370a08231306040518263ffffffff1660e01b815260040161052c919061237a565b60206040518083038186803b15801561054457600080fd5b505afa158015610558573d6000803e3d6000fd5b505050506040513d601f19601f8201168201806040525081019061057c9190612b06565b905090565b600260009054906101000a900473ffffffffffffffffffffffffffffffffffffffff1681565b600660009054906101000a900473ffffffffffffffffffffffffffffffffffffffff1681565b60008054906101000a900460ff1681565b600880546105eb90612abf565b80601f016020809104026020016040519081016040528092919081815260200182805461061790612abf565b80156106645780601f1061063957610100808354040283529160200191610664565b820191906000526020600020905b81548152906001019060200180831161064757829003601f168201915b505050505081565b600e60003373ffffffffffffffffffffffffffffffffffffffff1673ffffffffffffffffffffffffffffffffffffffff16815260200190815260200160002060009054906101000a900460ff166106f8576040517f08c379a00000000000000000000000000000000000000000000000000000000081526004016106ef90612b7f565b60405180910390fd5b6004600581111561070c5761070b612395565b5b60008054906101000a900460ff16600581111561072c5761072b612395565b5b141561076d576040517f08c379a000000000000000000000000000000000000000000000000000000000815260040161076490612beb565b60405180910390fd5b6003600581111561078157610780612395565b5b60008054906101000a900460ff1660058111156107a1576107a0612395565b5b14156107e2576040517f08c379a00000000000000000000000000000000000000000000000000000000081526004016107d990612c57565b60405180910390fd5b60006107ec6104cf565b146107fb576107f9611639565b505b600360009054906101000a900473ffffffffffffffffffffffffffffffffffffffff1673ffffffffffffffffffffffffffffffffffffffff16ff5b6009805461084390612abf565b80601f016020809104026020016040519081016040528092919081815260200182805461086f90612abf565b80156108bc5780601f10610891576101008083540402835291602001916108bc565b820191906000526020600020905b81548152906001019060200180831161089f57829003601f168201915b505050505081565b42600b5411610908576040517f08c379a00000000000000000000000000000000000000000000000000000000081526004016108ff90612cc3565b60405180910390fd5b600060019054906101000a900473ffffffffffffffffffffffffffffffffffffffff1673ffffffffffffffffffffffffffffffffffffffff163373ffffffffffffffffffffffffffffffffffffffff1614806109ad5750600e60003373ffffffffffffffffffffffffffffffffffffffff1673ffffffffffffffffffffffffffffffffffffffff16815260200190815260200160002060009054906101000a900460ff165b6109ec576040517f08c379a00000000000000000000000000000000000000000000000000000000081526004016109e390612d2f565b60405180910390fd5b60036005811115610a00576109ff612395565b5b60008054906101000a900460ff166005811115610a2057610a1f612395565b5b14610a60576040517f08c379a0000000000000000000000000000000000000000000000000000000008152600401610a5790612d9b565b60405180910390fd5b60046000806101000a81548160ff02191690836005811115610a8557610a84612395565b5b0217905550565b600e60003373ffffffffffffffffffffffffffffffffffffffff1673ffffffffffffffffffffffffffffffffffffffff16815260200190815260200160002060009054906101000a900460ff16610b18576040517f08c379a0000000000000000000000000000000000000000000000000000000008152600401610b0f90612b7f565b60405180910390fd5b42600b5411610b5c576040517f08c379a0000000000000000000000000000000000000000000000000000000008152600401610b5390612cc3565b60405180910390fd5b60016005811115610b7057610b6f612395565b5b60008054906101000a900460ff166005811115610b9057610b8f612395565b5b1480610bcd575060026005811115610bab57610baa612395565b5b60008054906101000a900460ff166005811115610bcb57610bca612395565b5b145b610c0c576040517f08c379a0000000000000000000000000000000000000000000000000000000008152600401610c0390612e2d565b60405180910390fd5b7fb20e0717219840fd5684a80bec782e8babb56ea224f677561b791a61192605c18282604051610c3d929190612e4d565b60405180910390a15050565b600160009054906101000a900473ffffffffffffffffffffffffffffffffffffffff1681565b600360009054906101000a900473ffffffffffffffffffffffffffffffffffffffff1681565b60078054610ca290612abf565b80601f0160208091040260200160405190810160405280929190818152602001828054610cce90612abf565b8015610d1b5780601f10610cf057610100808354040283529160200191610d1b565b820191906000526020600020905b815481529060010190602001808311610cfe57829003601f168201915b505050505081565b600e60003373ffffffffffffffffffffffffffffffffffffffff1673ffffffffffffffffffffffffffffffffffffffff16815260200190815260200160002060009054906101000a900460ff16610daf576040517f08c379a0000000000000000000000000000000000000000000000000000000008152600401610da690612ef6565b60405180910390fd5b60005b8151811015610e40576001600e6000848481518110610dd457610dd3612f16565b5b602002602001015173ffffffffffffffffffffffffffffffffffffffff1673ffffffffffffffffffffffffffffffffffffffff16815260200190815260200160002060006101000a81548160ff0219169083151502179055508080610e3890612f74565b915050610db2565b5050565b6000600e60003373ffffffffffffffffffffffffffffffffffffffff1673ffffffffffffffffffffffffffffffffffffffff16815260200190815260200160002060009054906101000a900460ff16610ed2576040517f08c379a0000000000000000000000000000000000000000000000000000000008152600401610ec990612b7f565b60405180910390fd5b6000610edc6104cf565b1415610f1d576040517f08c379a0000000000000000000000000000000000000000000000000000000008152600401610f1490613009565b60405180910390fd5b60006005811115610f3157610f30612395565b5b60008054906101000a900460ff166005811115610f5157610f50612395565b5b1415610f92576040517f08c379a0000000000000000000000000000000000000000000000000000000008152600401610f8990613075565b60405180910390fd5b60036005811115610fa657610fa5612395565b5b60008054906101000a900460ff166005811115610fc657610fc5612395565b5b1415611007576040517f08c379a0000000000000000000000000000000000000000000000000000000008152600401610ffe90612c57565b60405180910390fd5b42600b541161104b576040517f08c379a000000000000000000000000000000000000000000000000000000000815260040161104290612cc3565b60405180910390fd5b845186511461108f576040517f08c379a000000000000000000000000000000000000000000000000000000000815260040161108690613107565b60405180910390fd5b606463ffffffff168651106110d9576040517f08c379a00000000000000000000000000000000000000000000000000000000081526004016110d090613173565b60405180910390fd5b60006110e36104cf565b90506000600d60006101000a81548160ff0219169083151502179055506000805b8751811015611148578781815181106111205761111f612f16565b5b6020026020010151826111339190613193565b9150808061114090612f74565b915050611104565b506b033b2e3c9fd0803ce80000008110611197576040517f08c379a000000000000000000000000000000000000000000000000000000000815260040161118e90613235565b60405180910390fd5b808210156111b857600d60009054906101000a900460ff16925050506115f3565b60008086511415806111cc57506000875114155b905080156112035786600990805190602001906111ea929190612186565b5085600a9080519060200190611201929190612186565b505b60008061120f8a611e58565b915091506000600660009054906101000a900473ffffffffffffffffffffffffffffffffffffffff16905060005b8c5181101561131d578173ffffffffffffffffffffffffffffffffffffffff1663a9059cbb8e838151811061127557611274612f16565b5b6020026020010151600c848154811061129157611290612f16565b5b90600052602060002001546040518363ffffffff1660e01b81526004016112b9929190613255565b602060405180830381600087803b1580156112d357600080fd5b505af11580156112e7573d6000803e3d6000fd5b505050506040513d601f19601f8201168201806040525081019061130b91906132aa565b508061131690612f74565b905061123d565b50600c600061132c919061220c565b8073ffffffffffffffffffffffffffffffffffffffff1663a9059cbb600060019054906101000a900473ffffffffffffffffffffffffffffffffffffffff16856040518363ffffffff1660e01b8152600401611389929190613255565b602060405180830381600087803b1580156113a357600080fd5b505af11580156113b7573d6000803e3d6000fd5b505050506040513d601f19601f820116820180604052508101906113db91906132aa565b801561149257508073ffffffffffffffffffffffffffffffffffffffff1663a9059cbb600160009054906101000a900473ffffffffffffffffffffffffffffffffffffffff16846040518363ffffffff1660e01b815260040161143f929190613255565b602060405180830381600087803b15801561145957600080fd5b505af115801561146d573d6000803e3d6000fd5b505050506040513d601f19601f8201168201806040525081019061149191906132aa565b5b600d60006101000a81548160ff0219169083151502179055506114b36104cf565b9550600d60009054906101000a900460ff16156115a157600160058111156114de576114dd612395565b5b60008054906101000a900460ff1660058111156114fe576114fd612395565b5b141561152f5760026000806101000a81548160ff0219169083600581111561152957611528612395565b5b02179055505b60008614801561157057506002600581111561154e5761154d612395565b5b60008054906101000a900460ff16600581111561156e5761156d612395565b5b145b156115a05760036000806101000a81548160ff0219169083600581111561159a57611599612395565b5b02179055505b5b877f8ed71c3a6fb899bfe96968ade5a4119b380c0d642a775106eb80aa795450777e8d516040516115d29190612263565b60405180910390a2600d60009054906101000a900460ff1696505050505050505b95945050505050565b60045481565b600d60009054906101000a900460ff1681565b600c818154811061162557600080fd5b906000526020600020016000915090505481565b6000600e60003373ffffffffffffffffffffffffffffffffffffffff1673ffffffffffffffffffffffffffffffffffffffff16815260200190815260200160002060009054906101000a900460ff166116c7576040517f08c379a00000000000000000000000000000000000000000000000000000000081526004016116be90612b7f565b60405180910390fd5b60006116d16104cf565b1415611712576040517f08c379a000000000000000000000000000000000000000000000000000000000815260040161170990613009565b60405180910390fd5b6004600581111561172657611725612395565b5b60008054906101000a900460ff16600581111561174657611745612395565b5b1415611787576040517f08c379a000000000000000000000000000000000000000000000000000000000815260040161177e90612beb565b60405180910390fd5b6003600581111561179b5761179a612395565b5b60008054906101000a900460ff1660058111156117bb576117ba612395565b5b14156117fc576040517f08c379a00000000000000000000000000000000000000000000000000000000081526004016117f390612c57565b60405180910390fd5b6000600660009054906101000a900473ffffffffffffffffffffffffffffffffffffffff1673ffffffffffffffffffffffffffffffffffffffff1663a9059cbb600360009054906101000a900473ffffffffffffffffffffffffffffffffffffffff166118676104cf565b6040518363ffffffff1660e01b8152600401611884929190613336565b602060405180830381600087803b15801561189e57600080fd5b505af11580156118b2573d6000803e3d6000fd5b505050506040513d601f19601f820116820180604052508101906118d691906132aa565b905060056000806101000a81548160ff021916908360058111156118fd576118fc612395565b5b02179055508091505090565b600e6020528060005260406000206000915054906101000a900460ff1681565b600e60003373ffffffffffffffffffffffffffffffffffffffff1673ffffffffffffffffffffffffffffffffffffffff16815260200190815260200160002060009054906101000a900460ff166119b5576040517f08c379a00000000000000000000000000000000000000000000000000000000081526004016119ac90612b7f565b60405180910390fd5b42600b54116119f9576040517f08c379a00000000000000000000000000000000000000000000000000000000081526004016119f090612cc3565b60405180910390fd5b600073ffffffffffffffffffffffffffffffffffffffff168673ffffffffffffffffffffffffffffffffffffffff161415611a69576040517f08c379a0000000000000000000000000000000000000000000000000000000008152600401611a60906133ab565b60405180910390fd5b600073ffffffffffffffffffffffffffffffffffffffff168573ffffffffffffffffffffffffffffffffffffffff161415611ad9576040517f08c379a0000000000000000000000000000000000000000000000000000000008152600401611ad0906133ab565b60405180910390fd5b6000611aee8486611dfa90919063ffffffff16565b905060008110158015611b02575060648111155b611b41576040517f08c379a0000000000000000000000000000000000000000000000000000000008152600401611b3890613417565b60405180910390fd5b60006005811115611b5557611b54612395565b5b60008054906101000a900460ff166005811115611b7557611b74612395565b5b14611bb5576040517f08c379a0000000000000000000000000000000000000000000000000000000008152600401611bac906134a9565b60405180910390fd5b86600060016101000a81548173ffffffffffffffffffffffffffffffffffffffff021916908373ffffffffffffffffffffffffffffffffffffffff16021790555085600160006101000a81548173ffffffffffffffffffffffffffffffffffffffff021916908373ffffffffffffffffffffffffffffffffffffffff1602179055506001600e60008060019054906101000a900473ffffffffffffffffffffffffffffffffffffffff1673ffffffffffffffffffffffffffffffffffffffff1673ffffffffffffffffffffffffffffffffffffffff16815260200190815260200160002060006101000a81548160ff0219169083151502179055506001600e6000600160009054906101000a900473ffffffffffffffffffffffffffffffffffffffff1673ffffffffffffffffffffffffffffffffffffffff1673ffffffffffffffffffffffffffffffffffffffff16815260200190815260200160002060006101000a81548160ff02191690831515021790555084600481905550836005819055508260079080519060200190611d4e929190612186565b508160089080519060200190611d65929190612186565b5060016000806101000a81548160ff02191690836005811115611d8b57611d8a612395565b5b02179055507f8ec464ac0c8e44e17130cd1ffb09967fa6f2c33339289678a59ea0112cfc2aa960076008604051611dc392919061355e565b60405180910390a150505050505050565b600060019054906101000a900473ffffffffffffffffffffffffffffffffffffffff1681565b6000808284611e099190613193565b905083811015611e4e576040517f08c379a0000000000000000000000000000000000000000000000000000000008152600401611e45906135e1565b60405180910390fd5b8091505092915050565b60008060008060005b8551811015611fa2576000611eae6064611ea0898581518110611e8757611e86612f16565b5b6020026020010151600454611fb090919063ffffffff16565b61202b90919063ffffffff16565b90506000611ef46064611ee68a8681518110611ecd57611ecc612f16565b5b6020026020010151600554611fb090919063ffffffff16565b61202b90919063ffffffff16565b90506000611f3782611f29858c8881518110611f1357611f12612f16565b5b602002602001015161207590919063ffffffff16565b61207590919063ffffffff16565b9050611f4c8387611dfa90919063ffffffff16565b9550611f618286611dfa90919063ffffffff16565b9450600c8190806001815401808255809150506001900390600052602060002001600090919091909150555050508080611f9a90612f74565b915050611e61565b508181935093505050915091565b600080831415611fc35760009050612025565b60008284611fd19190613601565b9050828482611fe0919061368a565b14612020576040517f08c379a00000000000000000000000000000000000000000000000000000000081526004016120179061372d565b60405180910390fd5b809150505b92915050565b600061206d83836040518060400160405280601a81526020017f536166654d6174683a206469766973696f6e206279207a65726f0000000000008152506120bf565b905092915050565b60006120b783836040518060400160405280601e81526020017f536166654d6174683a207375627472616374696f6e206f766572666c6f770000815250612122565b905092915050565b60008083118290612106576040517f08c379a00000000000000000000000000000000000000000000000000000000081526004016120fd9190612317565b60405180910390fd5b5060008385612115919061368a565b9050809150509392505050565b600083831115829061216a576040517f08c379a00000000000000000000000000000000000000000000000000000000081526004016121619190612317565b60405180910390fd5b5060008385612179919061374d565b9050809150509392505050565b82805461219290612abf565b90600052602060002090601f0160209004810192826121b457600085556121fb565b82601f106121cd57805160ff19168380011785556121fb565b828001600101855582156121fb579182015b828111156121fa5782518255916020019190600101906121df565b5b509050612208919061222d565b5090565b508054600082559060005260206000209081019061222a919061222d565b50565b5b8082111561224657600081600090555060010161222e565b5090565b6000819050919050565b61225d8161224a565b82525050565b60006020820190506122786000830184612254565b92915050565b600081519050919050565b600082825260208201905092915050565b60005b838110156122b857808201518184015260208101905061229d565b838111156122c7576000848401525b50505050565b6000601f19601f8301169050919050565b60006122e98261227e565b6122f38185612289565b935061230381856020860161229a565b61230c816122cd565b840191505092915050565b6000602082019050818103600083015261233181846122de565b905092915050565b600073ffffffffffffffffffffffffffffffffffffffff82169050919050565b600061236482612339565b9050919050565b61237481612359565b82525050565b600060208201905061238f600083018461236b565b92915050565b7f4e487b7100000000000000000000000000000000000000000000000000000000600052602160045260246000fd5b600681106123d5576123d4612395565b5b50565b60008190506123e6826123c4565b919050565b60006123f6826123d8565b9050919050565b612406816123eb565b82525050565b600060208201905061242160008301846123fd565b92915050565b6000604051905090565b600080fd5b600080fd5b600080fd5b600080fd5b7f4e487b7100000000000000000000000000000000000000000000000000000000600052604160045260246000fd5b61247d826122cd565b810181811067ffffffffffffffff8211171561249c5761249b612445565b5b80604052505050565b60006124af612427565b90506124bb8282612474565b919050565b600067ffffffffffffffff8211156124db576124da612445565b5b6124e4826122cd565b9050602081019050919050565b82818337600083830152505050565b600061251361250e846124c0565b6124a5565b90508281526020810184848401111561252f5761252e612440565b5b61253a8482856124f1565b509392505050565b600082601f8301126125575761255661243b565b5b8135612567848260208601612500565b91505092915050565b6000806040838503121561258757612586612431565b5b600083013567ffffffffffffffff8111156125a5576125a4612436565b5b6125b185828601612542565b925050602083013567ffffffffffffffff8111156125d2576125d1612436565b5b6125de85828601612542565b9150509250929050565b60006125f382612339565b9050919050565b612603816125e8565b82525050565b600060208201905061261e60008301846125fa565b92915050565b600067ffffffffffffffff82111561263f5761263e612445565b5b602082029050602081019050919050565b600080fd5b61265e81612359565b811461266957600080fd5b50565b60008135905061267b81612655565b92915050565b600061269461268f84612624565b6124a5565b905080838252602082019050602084028301858111156126b7576126b6612650565b5b835b818110156126e057806126cc888261266c565b8452602084019350506020810190506126b9565b5050509392505050565b600082601f8301126126ff576126fe61243b565b5b813561270f848260208601612681565b91505092915050565b60006020828403121561272e5761272d612431565b5b600082013567ffffffffffffffff81111561274c5761274b612436565b5b612758848285016126ea565b91505092915050565b600067ffffffffffffffff82111561277c5761277b612445565b5b602082029050602081019050919050565b6127968161224a565b81146127a157600080fd5b50565b6000813590506127b38161278d565b92915050565b60006127cc6127c784612761565b6124a5565b905080838252602082019050602084028301858111156127ef576127ee612650565b5b835b81811015612818578061280488826127a4565b8452602084019350506020810190506127f1565b5050509392505050565b600082601f8301126128375761283661243b565b5b81356128478482602086016127b9565b91505092915050565b600080600080600060a0868803121561286c5761286b612431565b5b600086013567ffffffffffffffff81111561288a57612889612436565b5b612896888289016126ea565b955050602086013567ffffffffffffffff8111156128b7576128b6612436565b5b6128c388828901612822565b945050604086013567ffffffffffffffff8111156128e4576128e3612436565b5b6128f088828901612542565b935050606086013567ffffffffffffffff81111561291157612910612436565b5b61291d88828901612542565b925050608061292e888289016127a4565b9150509295509295909350565b60008115159050919050565b6129508161293b565b82525050565b600060208201905061296b6000830184612947565b92915050565b60006020828403121561298757612986612431565b5b6000612995848285016127a4565b91505092915050565b6000602082840312156129b4576129b3612431565b5b60006129c28482850161266c565b91505092915050565b60008060008060008060c087890312156129e8576129e7612431565b5b60006129f689828a0161266c565b9650506020612a0789828a0161266c565b9550506040612a1889828a016127a4565b9450506060612a2989828a016127a4565b935050608087013567ffffffffffffffff811115612a4a57612a49612436565b5b612a5689828a01612542565b92505060a087013567ffffffffffffffff811115612a7757612a76612436565b5b612a8389828a01612542565b9150509295509295509295565b7f4e487b7100000000000000000000000000000000000000000000000000000000600052602260045260246000fd5b60006002820490506001821680612ad757607f821691505b60208210811415612aeb57612aea612a90565b5b50919050565b600081519050612b008161278d565b92915050565b600060208284031215612b1c57612b1b612431565b5b6000612b2a84828501612af1565b91505092915050565b7f416464726573732063616c6c696e67206e6f7420747275737465640000000000600082015250565b6000612b69601b83612289565b9150612b7482612b33565b602082019050919050565b60006020820190508181036000830152612b9881612b5c565b9050919050565b7f457363726f7720696e20436f6d706c6574652073746174757320737461746500600082015250565b6000612bd5601f83612289565b9150612be082612b9f565b602082019050919050565b60006020820190508181036000830152612c0481612bc8565b9050919050565b7f457363726f7720696e2050616964207374617475732073746174650000000000600082015250565b6000612c41601b83612289565b9150612c4c82612c0b565b602082019050919050565b60006020820190508181036000830152612c7081612c34565b9050919050565b7f436f6e7472616374206578706972656400000000000000000000000000000000600082015250565b6000612cad601083612289565b9150612cb882612c77565b602082019050919050565b60006020820190508181036000830152612cdc81612ca0565b9050919050565b7f416464726573732063616c6c696e67206973206e6f7420747275737465640000600082015250565b6000612d19601e83612289565b9150612d2482612ce3565b602082019050919050565b60006020820190508181036000830152612d4881612d0c565b9050919050565b7f457363726f77206e6f7420696e20506169642073746174650000000000000000600082015250565b6000612d85601883612289565b9150612d9082612d4f565b602082019050919050565b60006020820190508181036000830152612db481612d78565b9050919050565b7f457363726f77206e6f7420696e2050656e64696e67206f72205061727469616c60008201527f2073746174757320737461746500000000000000000000000000000000000000602082015250565b6000612e17602d83612289565b9150612e2282612dbb565b604082019050919050565b60006020820190508181036000830152612e4681612e0a565b9050919050565b60006040820190508181036000830152612e6781856122de565b90508181036020830152612e7b81846122de565b90509392505050565b7f416464726573732063616c6c696e672063616e6e6f742061646420747275737460008201527f65642068616e646c657273000000000000000000000000000000000000000000602082015250565b6000612ee0602b83612289565b9150612eeb82612e84565b604082019050919050565b60006020820190508181036000830152612f0f81612ed3565b9050919050565b7f4e487b7100000000000000000000000000000000000000000000000000000000600052603260045260246000fd5b7f4e487b7100000000000000000000000000000000000000000000000000000000600052601160045260246000fd5b6000612f7f8261224a565b91507fffffffffffffffffffffffffffffffffffffffffffffffffffffffffffffffff821415612fb257612fb1612f45565b5b600182019050919050565b7f454950323020636f6e7472616374206f7574206f662066756e64730000000000600082015250565b6000612ff3601b83612289565b9150612ffe82612fbd565b602082019050919050565b6000602082019050818103600083015261302281612fe6565b9050919050565b7f457363726f7720696e204c61756e636865642073746174757320737461746500600082015250565b600061305f601f83612289565b915061306a82613029565b602082019050919050565b6000602082019050818103600083015261308e81613052565b9050919050565b7f416d6f756e74206f6620726563697069656e747320616e642076616c7565732060008201527f646f6e2774206d61746368000000000000000000000000000000000000000000602082015250565b60006130f1602b83612289565b91506130fc82613095565b604082019050919050565b60006020820190508181036000830152613120816130e4565b9050919050565b7f546f6f206d616e7920726563697069656e747300000000000000000000000000600082015250565b600061315d601383612289565b915061316882613127565b602082019050919050565b6000602082019050818103600083015261318c81613150565b9050919050565b600061319e8261224a565b91506131a98361224a565b9250827fffffffffffffffffffffffffffffffffffffffffffffffffffffffffffffffff038211156131de576131dd612f45565b5b828201905092915050565b7f42756c6b2076616c756520746f6f206869676800000000000000000000000000600082015250565b600061321f601383612289565b915061322a826131e9565b602082019050919050565b6000602082019050818103600083015261324e81613212565b9050919050565b600060408201905061326a600083018561236b565b6132776020830184612254565b9392505050565b6132878161293b565b811461329257600080fd5b50565b6000815190506132a48161327e565b92915050565b6000602082840312156132c0576132bf612431565b5b60006132ce84828501613295565b91505092915050565b6000819050919050565b60006132fc6132f76132f284612339565b6132d7565b612339565b9050919050565b600061330e826132e1565b9050919050565b600061332082613303565b9050919050565b61333081613315565b82525050565b600060408201905061334b6000830185613327565b6133586020830184612254565b9392505050565b7f496e76616c6964206f72206d697373696e6720746f6b656e207370656e646572600082015250565b6000613395602083612289565b91506133a08261335f565b602082019050919050565b600060208201905081810360008301526133c481613388565b9050919050565b7f5374616b65206f7574206f6620626f756e647300000000000000000000000000600082015250565b6000613401601383612289565b915061340c826133cb565b602082019050919050565b60006020820190508181036000830152613430816133f4565b9050919050565b7f457363726f77206e6f7420696e204c61756e636865642073746174757320737460008201527f6174650000000000000000000000000000000000000000000000000000000000602082015250565b6000613493602383612289565b915061349e82613437565b604082019050919050565b600060208201905081810360008301526134c281613486565b9050919050565b60008190508160005260206000209050919050565b600081546134eb81612abf565b6134f58186612289565b94506001821660008114613510576001811461352257613555565b60ff1983168652602086019350613555565b61352b856134c9565b60005b8381101561354d5781548189015260018201915060208101905061352e565b808801955050505b50505092915050565b6000604082019050818103600083015261357881856134de565b9050818103602083015261358c81846134de565b90509392505050565b7f536166654d6174683a206164646974696f6e206f766572666c6f770000000000600082015250565b60006135cb601b83612289565b91506135d682613595565b602082019050919050565b600060208201905081810360008301526135fa816135be565b9050919050565b600061360c8261224a565b91506136178361224a565b9250817fffffffffffffffffffffffffffffffffffffffffffffffffffffffffffffffff04831182151516156136505761364f612f45565b5b828202905092915050565b7f4e487b7100000000000000000000000000000000000000000000000000000000600052601260045260246000fd5b60006136958261224a565b91506136a08361224a565b9250826136b0576136af61365b565b5b828204905092915050565b7f536166654d6174683a206d756c7469706c69636174696f6e206f766572666c6f60008201527f7700000000000000000000000000000000000000000000000000000000000000602082015250565b6000613717602183612289565b9150613722826136bb565b604082019050919050565b600060208201905081810360008301526137468161370a565b9050919050565b60006137588261224a565b91506137638361224a565b92508282101561377657613775612f45565b5b82820390509291505056fea2646970667358221220aadb227e03f2fdd48366bee6627ce55ab00afb9ec34eeb6a9f3186f45caa32f864736f6c63430008090033",
  "linkReferences": {},
  "deployedLinkReferences": {}
}